{"abi":[{"type":"constructor","inputs":[],"stateMutability":"nonpayable"},{"type":"function","name":"admin","inputs":[],"outputs":[{"name":"","type":"address","internalType":"address"}],"stateMutability":"view"},{"type":"function","name":"closeProposal","inputs":[{"name":"proposalId","type":"uint256","internalType":"uint256"}],"outputs":[],"stateMutability":"nonpayable"},{"type":"function","name":"createProposal","inputs":[{"name":"description","type":"string","internalType":"string"}],"outputs":[],"stateMutability":"nonpayable"},{"type":"function","name":"hasVoted","inputs":[{"name":"","type":"uint256","internalType":"uint256"},{"name":"","type":"address","internalType":"address"}],"outputs":[{"name":"","type":"bool","internalType":"bool"}],"stateMutability":"view"},{"type":"function","name":"proposals","inputs":[{"name":"","type":"uint256","internalType":"uint256"}],"outputs":[{"name":"description","type":"string","internalType":"string"},{"name":"yesVotes","type":"uint256","internalType":"uint256"},{"name":"noVotes","type":"uint256","internalType":"uint256"},{"name":"isOpen","type":"bool","internalType":"bool"}],"stateMutability":"view"},{"type":"function","name":"registerVoter","inputs":[{"name":"voter","type":"address","internalType":"address"}],"outputs":[],"stateMutability":"nonpayable"},{"type":"function","name":"registeredVoters","inputs":[{"name":"","type":"address","internalType":"address"}],"outputs":[{"name":"","type":"bool","internalType":"bool"}],"stateMutability":"view"},{"type":"function","name":"vote","inputs":[{"name":"proposalId","type":"uint256","internalType":"uint256"},{"name":"voteYes","type":"bool","internalType":"bool"}],"outputs":[],"stateMutability":"nonpayable"}],"bytecode":{"object":"0x6080604052348015600e575f5ffd5b50335f5f6101000a81548173ffffffffffffffffffffffffffffffffffffffff021916908373ffffffffffffffffffffffffffffffffffffffff1602179055506111da8061005b5f395ff3fe608060405234801561000f575f5ffd5b5060043610610086575f3560e01c806349c2a1a61161005957806349c2a1a614610125578063a9ff6df114610141578063c9d27afe14610171578063f851a4401461018d57610086565b8063013cf08b1461008a5780630386a016146100bd57806338db6dd3146100d957806343859632146100f5575b5f5ffd5b6100a4600480360381019061009f9190610873565b6101ab565b6040516100b49493929190610937565b60405180910390f35b6100d760048036038101906100d29190610873565b610278565b005b6100f360048036038101906100ee91906109db565b610343565b005b61010f600480360381019061010a9190610a06565b610429565b60405161011c9190610a44565b60405180910390f35b61013f600480360381019061013a9190610b89565b610453565b005b61015b600480360381019061015691906109db565b610579565b6040516101689190610a44565b60405180910390f35b61018b60048036038101906101869190610bfa565b610596565b005b61019561080b565b6040516101a29190610c47565b60405180910390f35b600181815481106101ba575f80fd5b905f5260205f2090600402015f91509050805f0180546101d990610c8d565b80601f016020809104026020016040519081016040528092919081815260200182805461020590610c8d565b80156102505780601f1061022757610100808354040283529160200191610250565b820191905f5260205f20905b81548152906001019060200180831161023357829003601f168201915b505050505090806001015490806002015490806003015f9054906101000a900460ff16905084565b5f5f9054906101000a900473ffffffffffffffffffffffffffffffffffffffff1673ffffffffffffffffffffffffffffffffffffffff163373ffffffffffffffffffffffffffffffffffffffff1614610306576040517f08c379a00000000000000000000000000000000000000000000000000000000081526004016102fd90610d07565b60405180910390fd5b5f6001828154811061031b5761031a610d25565b5b905f5260205f2090600402016003015f6101000a81548160ff02191690831515021790555050565b5f5f9054906101000a900473ffffffffffffffffffffffffffffffffffffffff1673ffffffffffffffffffffffffffffffffffffffff163373ffffffffffffffffffffffffffffffffffffffff16146103d1576040517f08c379a00000000000000000000000000000000000000000000000000000000081526004016103c890610d07565b60405180910390fd5b600160025f8373ffffffffffffffffffffffffffffffffffffffff1673ffffffffffffffffffffffffffffffffffffffff1681526020019081526020015f205f6101000a81548160ff02191690831515021790555050565b6003602052815f5260405f20602052805f5260405f205f915091509054906101000a900460ff1681565b5f5f9054906101000a900473ffffffffffffffffffffffffffffffffffffffff1673ffffffffffffffffffffffffffffffffffffffff163373ffffffffffffffffffffffffffffffffffffffff16146104e1576040517f08c379a00000000000000000000000000000000000000000000000000000000081526004016104d890610d07565b60405180910390fd5b600160405180608001604052808381526020015f81526020015f815260200160011515815250908060018154018082558091505060019003905f5260205f2090600402015f909190919091505f820151815f0190816105409190610f03565b5060208201518160010155604082015181600201556060820151816003015f6101000a81548160ff021916908315150217905550505050565b6002602052805f5260405f205f915054906101000a900460ff1681565b60025f3373ffffffffffffffffffffffffffffffffffffffff1673ffffffffffffffffffffffffffffffffffffffff1681526020019081526020015f205f9054906101000a900460ff1661061f576040517f08c379a00000000000000000000000000000000000000000000000000000000081526004016106169061101c565b60405180910390fd5b6001828154811061063357610632610d25565b5b905f5260205f2090600402016003015f9054906101000a900460ff1661068e576040517f08c379a0000000000000000000000000000000000000000000000000000000008152600401610685906110aa565b60405180910390fd5b60035f8381526020019081526020015f205f3373ffffffffffffffffffffffffffffffffffffffff1673ffffffffffffffffffffffffffffffffffffffff1681526020019081526020015f205f9054906101000a900460ff1615610727576040517f08c379a000000000000000000000000000000000000000000000000000000000815260040161071e90611112565b60405180910390fd5b600160035f8481526020019081526020015f205f3373ffffffffffffffffffffffffffffffffffffffff1673ffffffffffffffffffffffffffffffffffffffff1681526020019081526020015f205f6101000a81548160ff02191690831515021790555080156107ce57600182815481106107a5576107a4610d25565b5b905f5260205f2090600402016001015f8154809291906107c49061115d565b9190505550610807565b600182815481106107e2576107e1610d25565b5b905f5260205f2090600402016002015f8154809291906108019061115d565b91905055505b5050565b5f5f9054906101000a900473ffffffffffffffffffffffffffffffffffffffff1681565b5f604051905090565b5f5ffd5b5f5ffd5b5f819050919050565b61085281610840565b811461085c575f5ffd5b50565b5f8135905061086d81610849565b92915050565b5f6020828403121561088857610887610838565b5b5f6108958482850161085f565b91505092915050565b5f81519050919050565b5f82825260208201905092915050565b8281835e5f83830152505050565b5f601f19601f8301169050919050565b5f6108e08261089e565b6108ea81856108a8565b93506108fa8185602086016108b8565b610903816108c6565b840191505092915050565b61091781610840565b82525050565b5f8115159050919050565b6109318161091d565b82525050565b5f6080820190508181035f83015261094f81876108d6565b905061095e602083018661090e565b61096b604083018561090e565b6109786060830184610928565b95945050505050565b5f73ffffffffffffffffffffffffffffffffffffffff82169050919050565b5f6109aa82610981565b9050919050565b6109ba816109a0565b81146109c4575f5ffd5b50565b5f813590506109d5816109b1565b92915050565b5f602082840312156109f0576109ef610838565b5b5f6109fd848285016109c7565b91505092915050565b5f5f60408385031215610a1c57610a1b610838565b5b5f610a298582860161085f565b9250506020610a3a858286016109c7565b9150509250929050565b5f602082019050610a575f830184610928565b92915050565b5f5ffd5b5f5ffd5b7f4e487b71000000000000000000000000000000000000000000000000000000005f52604160045260245ffd5b610a9b826108c6565b810181811067ffffffffffffffff82111715610aba57610ab9610a65565b5b80604052505050565b5f610acc61082f565b9050610ad88282610a92565b919050565b5f67ffffffffffffffff821115610af757610af6610a65565b5b610b00826108c6565b9050602081019050919050565b828183375f83830152505050565b5f610b2d610b2884610add565b610ac3565b905082815260208101848484011115610b4957610b48610a61565b5b610b54848285610b0d565b509392505050565b5f82601f830112610b7057610b6f610a5d565b5b8135610b80848260208601610b1b565b91505092915050565b5f60208284031215610b9e57610b9d610838565b5b5f82013567ffffffffffffffff811115610bbb57610bba61083c565b5b610bc784828501610b5c565b91505092915050565b610bd98161091d565b8114610be3575f5ffd5b50565b5f81359050610bf481610bd0565b92915050565b5f5f60408385031215610c1057610c0f610838565b5b5f610c1d8582860161085f565b9250506020610c2e85828601610be6565b9150509250929050565b610c41816109a0565b82525050565b5f602082019050610c5a5f830184610c38565b92915050565b7f4e487b71000000000000000000000000000000000000000000000000000000005f52602260045260245ffd5b5f6002820490506001821680610ca457607f821691505b602082108103610cb757610cb6610c60565b5b50919050565b7f4e6f74207468652061646d696e000000000000000000000000000000000000005f82015250565b5f610cf1600d836108a8565b9150610cfc82610cbd565b602082019050919050565b5f6020820190508181035f830152610d1e81610ce5565b9050919050565b7f4e487b71000000000000000000000000000000000000000000000000000000005f52603260045260245ffd5b5f819050815f5260205f209050919050565b5f6020601f8301049050919050565b5f82821b905092915050565b5f60088302610dae7fffffffffffffffffffffffffffffffffffffffffffffffffffffffffffffffff82610d73565b610db88683610d73565b95508019841693508086168417925050509392505050565b5f819050919050565b5f610df3610dee610de984610840565b610dd0565b610840565b9050919050565b5f819050919050565b610e0c83610dd9565b610e20610e1882610dfa565b848454610d7f565b825550505050565b5f5f905090565b610e37610e28565b610e42818484610e03565b505050565b5f5b82811015610e6857610e5d5f828401610e2f565b600181019050610e49565b505050565b601f821115610ebb5782821115610eba57610e8781610d52565b610e9083610d64565b610e9985610d64565b6020861015610ea6575f90505b808301610eb582840382610e47565b505050505b5b505050565b5f82821c905092915050565b5f610edb5f1984600802610ec0565b1980831691505092915050565b5f610ef38383610ecc565b9150826002028217905092915050565b610f0c8261089e565b67ffffffffffffffff811115610f2557610f24610a65565b5b610f2f8254610c8d565b610f3a828285610e6d565b5f60209050601f831160018114610f6b575f8415610f59578287015190505b610f638582610ee8565b865550610fca565b601f198416610f7986610d52565b5f5b82811015610fa057848901518255600182019150602085019450602081019050610f7b565b86831015610fbd5784890151610fb9601f891682610ecc565b8355505b6001600288020188555050505b505050505050565b7f4e6f742061207265676973746572656420766f746572000000000000000000005f82015250565b5f6110066016836108a8565b915061101182610fd2565b602082019050919050565b5f6020820190508181035f83015261103381610ffa565b9050919050565b7f566f74696e6720697320636c6f73656420666f7220746869732070726f706f735f8201527f616c000000000000000000000000000000000000000000000000000000000000602082015250565b5f6110946022836108a8565b915061109f8261103a565b604082019050919050565b5f6020820190508181035f8301526110c181611088565b9050919050565b7f596f75206861766520616c726561647920766f746564000000000000000000005f82015250565b5f6110fc6016836108a8565b9150611107826110c8565b602082019050919050565b5f6020820190508181035f830152611129816110f0565b9050919050565b7f4e487b71000000000000000000000000000000000000000000000000000000005f52601160045260245ffd5b5f61116782610840565b91507fffffffffffffffffffffffffffffffffffffffffffffffffffffffffffffffff820361119957611198611130565b5b60018201905091905056fea2646970667358221220b071157735e274a4a8f332ecc1bedc311411dfc28713aa488b2bf6810553abc364736f6c63430008230033","linkReferences":{}},"methodIdentifiers":{"admin()":"f851a440","closeProposal(uint256)":"0386a016","createProposal(string)":"49c2a1a6","hasVoted(uint256,address)":"43859632","proposals(uint256)":"013cf08b","registerVoter(address)":"38db6dd3","registeredVoters(address)":"a9ff6df1","vote(uint256,bool)":"c9d27afe"},"id":21}